:020000040800F2
:100000000000022011020008F9020008FB020008AB
:10001000FD020008FF0200080103000800000000C4
:1000200000000000000000000000000003030008C2
:10003000050300080000000007030008090300088A
:100040005502000855020008550200085502000834
:100050005502000855020008550200085502000824
:100060005502000855020008550200085502000814
:100070005502000855020008550200085502000804
:1000800055020008550200085502000855020008F4
:1000900055020008550200085502000855020008E4
:1000A00055020008550200085502000855020008D4
:1000B00055020008550200085502000855020008C4
:1000C00055020008550200085502000855020008B4
:1000D00055020008550200085502000855020008A4
:1000E0005502000855020008550200085502000894
:1000F0005502000855020008550200085502000884
:100100005502000855020008550200085502000873
:100110005502000855020008550200085502000863
:100120005502000855020008550200085502000853
:100130005502000855020008550200085502000843
:100140005502000855020008550200085502000833
:100150005502000855020008550200085502000823
:100160005502000855020008550200085502000813
:100170005502000855020008550200085502000803
:080180005502000855020008B9
:100188000348044B834202D0034B03B1184770471E
:10019800000000200000002000000000054806497B
:1001A800091A891001EBD171491002D0034B03B130
:1001B80018477047000000200000002000000000E1
:1001C80010B5064C237843B9FFF7DAFF044B13B197
:1001D8000448AFF300800123237010BD0000002005
:1001E80000000000B004000808B5044B1BB1044926
:1001F8000448AFF30080BDE80840CFE700000000E6
:1002080004000020B0040008002103E00A4B5B58FA
:100218004350043109480A4B42189A42F6D3094A16
:1002280002E0002342F8043B074B9A42F9D300F05E
:1002380069F800F015F87047D004000800000020A5
:10024800000000200000002024000020FEE782B00B
:100258000190019B5A1E0192002BFAD102B07047FF
:1002680008B50121082000F013F91D491D481D4C4F
:100278001D4D1E4E4FF470430B6001230B7103227A
:1002880000238B714A71CB7100F0B0F84FF48051A4
:10029800204600F0F9F82846FFF7D9FF4FF400513F
:1002A800204600F0F1F82846FFF7D1FF4FF48041CF
:1002B800204600F0E9F82846FFF7C9FF4FF400414F
:1002C800204600F0E1F83046FFF7C1FF20464FF422
:1002D800704100F0DBF86FF07F40FFF7B8FFD5E71B
:1002E8001C000020000C0240FFFF3F00FFFF7F00C2
:1002F8007047FEE7FEE7FEE7FEE770477047704786
:1003080070470000334B1A68002142F001021A605E
:1003180099601A6822F0847222F480321A602E4A98
:100328005A601A6882B022F480221A60D96000915B
:1003380001911A6842F480321A6019461A6802F468
:1003480000320192009A01320092019A1AB9009A79
:10035800B2F5A06FF2D10B6813F4003318BF012374
:100368000193019B012B2ED11A4B1C491A6C42F0A8
:1003780080521A640A6842F480420A609A689A6055
:100388009A6842F400429A609A6842F4A0529A60CD
:10039800134A5A601A6842F080721A601A68920109
:1003A800FCD5104A40F2056111609A6822F00302F8
:1003B8009A609A6842F002029A60064A936803F0CB
:1003C8000C03082BFAD1084B4FF000629A6002B078
:1003D800704700BF00380240103000240070004011
:1003E80008544007003C024000ED00E02DE9F043CE
:1003F8000D6800220126032406FA02FE3EEA0503E0
:100408003DD15700D0F800C004FA07F3DB430CEAEB
:10041800030CC0F800C091F804C0D0F800900CFAA2
:1004280007F80CF1FF3C48EA0908BCF1010FC0F8D5
:10043800008017D8D0F808C003EA0C0383604B7912
:10044800D0F808C0BB4043EA0C038360436823EA42
:100458000E0343608B79D0F804C093409BB243EA03
:100468000C034360C36804FA07FC23EA0C03C36067
:10047800CB79D0F80CC0BB4043EA0C03C36001320F
:10048800102AB9D1BDE8F0830183704741837047D2
:10049800044B1A6B11B110431863704722EA00002D
:1004A800FAE700BF00380240F8B500BFF8BC08BC46
:1004B8009E467047F8B500BFF8BC08BC9E4670471A
:0404C800F101000836
:0404CC00C90100085A
:0400000508000211DC
:00000001FF
