:020000040800F2
:100000000000022009050008790600087B060008A8
:100010007D0600087F060008810600080000000039
:10002000000000000000000000000000830600083F
:100030008506000800000000870600088906000801
:100040004D0500084D0500084D0500084D05000848
:100050004D0500084D0500084D0500084D05000838
:100060004D0500084D0500084D0500084D05000828
:100070004D0500084D0500084D0500084D05000818
:100080004D0500084D0500084D0500084D05000808
:100090004D0500084D0500084D0500084D050008F8
:1000A0004D0500084D0500084D0500084D050008E8
:1000B0004D0500084D0500084D0500084D050008D8
:1000C0004D0500084D0500084D0500084D050008C8
:1000D0004D0500084D0500084D0500084D050008B8
:1000E0004D0500084D0500084D0500084D050008A8
:1000F0004D0500084D0500084D0500084D05000898
:100100004D0500084D0500084D0500084D05000887
:100110004D0500084D0500084D0500084D05000877
:100120004D0500084D0500084D0500084D05000867
:100130004D0500084D0500084D0500084D05000857
:100140004D0500084D0500084D0500084D05000847
:100150004D0500084D0500084D0500084D05000837
:100160004D0500084D0500084D0500084D05000827
:100170004D0500084D0500084D0500084D05000817
:080180004D0500084D050008C3
:100188000348044B834202D0034B03B1184770471E
:100198007004002070040020000000000548064993
:1001A800091A891001EBD171491002D0034B03B130
:1001B80018477047700400207004002000000000F9
:1001C80010B5064C237843B9FFF7DAFF044B13B197
:1001D8000448AFF300800123237010BD7004002091
:1001E800000000009410000808B5044B1BB1044936
:1001F8000448AFF30080BDE80840CFE700000000E6
:100208007404002094100008154B002B08BF134BF2
:100218009D46A3F5803A00218B460F461348144AA1
:10022800121A00F0B9F80F4B002B00D098470E4B6C
:10023800002B00D098470020002104000D000D4835
:10024800002802D00C48AFF3008000F081F82000AD
:10025800290000F01DF800F06BF800BF000008004E
:1002680000000000000000000000000070040020F2
:10027800980400200000000000000000C0100008E2
:100288000000002070040020700400209804002062
:1002980080B500AF0121202000F0E0FD184B4FF49D
:1002A800C0621A60164B01221A71154B00229A710E
:1002B800134B03225A71124B0122DA71104911486B
:1002C80000F094FB4FF400710E4800F00AFC0E4851
:1002D80000F01EF84FF480610A4800F002FC0A485A
:1002E80000F016F8094800F013F84FF4C06105480B
:1002F80000F0F9FB6FF07F4000F00AF8E2E700BF7A
:100308008C04002000140240FFFF3F00FFFF7F0025
:1003180080B483B000AF786000BF7B685A1E7A60F3
:10032800002BFAD100BF0C37BD465DF8047B70473F
:1003380008B50021044600F079F8044B1868C36B2F
:1003480003B19847204600F0D9F800BF6C100008A8
:1003580070B50D4E0D4D761BB61006D00024013435
:1003680055F8043B9847A642F9D1094E094D761B2A
:1003780000F08EFEB61006D00024013455F8043B78
:100388009847A642F9D170BDB8100008B810000807
:10039800BC100008B8100008F0B4860743D0541EFB
:1003A800002A3ED0CAB2034602E014F1FF3438D323
:1003B80003F8012B9D07F8D1032C2BD9CDB245EAC0
:1003C80005250F2C45EA054516D9A4F110073F0964
:1003D80003F1200606EB071603F1100242E9045563
:1003E80042E902551032B242F8D104F00F04013745
:1003F800032C03EB07130DD91E462246043A032AA1
:1004080046F8045BFAD8221F22F003020432134490
:1004180004F003042CB1C9B21C4403F8011B9C422C
:10042800FBD1F0BC704714460346C5E72DE9F04FF1
:10043800304B85B01B68019303F5A47303900293B6
:100448008946019BD3F848612EB3DDF808A04FF028
:1004580001087468651E0FD4013406EB8404002774
:10046800B9F1000F1AD0D4F800314B4516D0013D30
:100478006B1CA4F10404F3D11F4B63B1D6E900321D
:100488007ABB73B33046CAF80030AFF30080DAF8AD
:100498000060002EDDD105B0BDE8F08F73682268DA
:1004A800013BAB420CBF75602760002ADFD0D6F84D
:1004B8008811D6F804B008FA05F30B4208D1904722
:1004C80073685B45BDD1DAF80030B342CFD0B8E7E6
:1004D800D6F88C01D4F88010034207D103989047CE
:1004E800EEE7B2461E46002EB3D1D4E70846904741
:1004F800E6E700BF6C10000800000000FEE700BF40
:10050800002103E00A4B5B584350043109480A4B69
:1005180042189A42F6D3094A02E0002342F8043B03
:10052800074B9A42F9D300F0ADF8FFF7B1FE7047D8
:10053800C010000800000020700400207004002093
:1005480098040020FEE708B501214FF4804000F030
:10055800F1FC00214FF48040BDE8084000F0EABCFF
:10056800014B1860704700BF0038014001F00303D9
:1005780001F0FC0101F1804101F59C3110B58A6858
:100588009B000F249C4022EA04028A608A689840F3
:100598001043886010BD0000014B1860704700BF11
:1005A800DC002742014B1860704700BF0004274257
:1005B800024B186AC0F30020704700BF00380140A2
:1005C80040F0BF60024B40F40030D860704700BF75
:1005D80000ED00E0017870B501F01F0301269E4090
:1005E800C3784D09CBB10F4BDA684378D243C2F3D5
:1005F8000222C2F10404E4B2A340DCB20F2343FA9E
:1006080002F283781340084A23431B011144DBB2EA
:1006180081F8003342F8256070BD2035024B43F85D
:100628002560F9E700ED00E000E100E021F060411D
:1006380021F07F01014B01439960704700ED00E014
:10064800044B1A6911B110431861704722EA00007F
:10065800FAE700BF00ED00E0044B1A6804280CBF5D
:1006680042F0040222F004021A60704710E000E031
:100678007047FEE7FEE7FEE7FEE770477047704702
:1006880070470000334B1A68002142F001021A60DB
:1006980099601A6822F0847222F480321A602E4A15
:1006A8005A601A6882B022F480221A60D9600091D8
:1006B80001911A6842F480321A6019461A6802F4E5
:1006C80000320192009A01320092019A1AB9009AF6
:1006D800B2F5A06FF2D10B6813F4003318BF0123F1
:1006E8000193019B012B2ED11A4B1C491A6C42F025
:1006F80080521A640A6842F480420A609A689A60D2
:100708009A6842F400429A609A6842F4A0529A6049
:10071800134A5A601A6842F080721A601A68920185
:10072800FCD5104A40F2056111609A6822F0030274
:100738009A609A6842F002029A60064A936803F047
:100748000C03082BFAD1084B4FF000629A6002B0F4
:10075800704700BF0038024010300024007000408D
:1007680008544007003C024000ED00E0174A1849D1
:10077800936803F00C03042B10B50DD0082B0DD093
:10078800144B0B60114B144A9B68C3F30313D25CE0
:100798000B68D3400B6010BD104BF2E754685068EB
:1007A80052686302C2F3881200F03F004CBF0B4B43
:1007B800084BB3FBF0F35343044A5268C2F30142B7
:1007C80001325200B3FBF2F3DBE700BF003802400E
:1007D800480400200024F4003804002000127A00A5
:1007E8000F4B13B50446012153F8200000F036FBE7
:1007F8000C4B33F81430009301238DF804308DF836
:10080800073002238DF80530074B0022694653F85C
:1008180024008DF8062000F0E9F802B010BD00BFF2
:100828007C1000088C10000850040020034B044A78
:1008380053F8203032F810201A83704750040020F3
:100848008C100008034B044A53F8203032F810206B
:100858005A837047500400208C100008044B53F84A
:100868002020044B516933F810304B4053617047D6
:10087800500400208C10000870B50D46012186B088
:100888000646084600F0EAFA01214FF4804000F0DD
:1008980015FB06A9012341F8103D144B002453F819
:1008A80026008DF80C408DF80F4000F09FF8012DC0
:1008B8001AD121462046FFF759FE082304A88DF8CF
:1008C800153004958DF814408DF8165000F038F95D
:1008D80040F60673ADF8043001A80F238DF80630F2
:1008E8008DF80750FFF776FE06B070BD4C04002067
:1008F80008B5034B012153F8200000F0E0F808BDCB
:100908004C04002008B5304B984209D10121084613
:1009180000F0E0FA00210120BDE8084000F0DABA52
:100928002A4B984206D10121022000F0D3FA002177
:100938000220F1E7264B984206D10121042000F05D
:10094800C9FA00210420E7E7224B984206D1012189
:10095800082000F0BFFA00210820DDE71E4B98426E
:1009680006D10121102000F0B5FA00211020D3E7AC
:100978001A4B984206D10121202000F0ABFA002141
:100988002020C9E7164B984206D10121402000F0EB
:10099800A1FA00214020BFE7124B984206D101215D
:1009A800802000F097FA00218020B5E70E4B98428E
:1009B80008D101214FF4807000F08CFA00214FF427
:1009C8008070A9E708BD00BF000002400004024093
:1009D80000080240000C02400010024000140240CF
:1009E80000180240001C0240002002402DE9F0439C
:1009F8000D6800220126032406FA02FE3EEA0503DA
:100A08003DD15700D0F800C004FA07F3DB430CEAE5
:100A1800030CC0F800C091F804C0D0F800900CFA9C
:100A280007F80CF1FF3C48EA0908BCF1010FC0F8CF
:100A3800008017D8D0F808C003EA0C0383604B790C
:100A4800D0F808C0BB4043EA0C038360436823EA3C
:100A58000E0343608B79D0F804C093409BB243EAFD
:100A68000C034360C36804FA07FC23EA0C03C36061
:100A7800CB79D0F80CC0BB4043EA0C03C360013209
:100A8800102AB9D1BDE8F0834FF6FF730360002345
:100A9800037143718371C371704782B04FF480331F
:100AA8000193019B0B430193019BC361C161019BAE
:100AB800C361C3690193C369019302B070470369B5
:100AC800194214BF012000207047006980B27047A6
:100AD8004369194214BF012000207047406980B261
:100AE800704701837047418370470AB1018370479B
:100AF800418370474161704743695940416170477C
:100B080001F00703C90800EB810010B5016A9B00DA
:100B18000F249C4021EA04010162016A9A400A43B9
:100B2800026210BD044B00221A605A609A60DA60B3
:100B3800024A5A61704700BF003C0140FFFF7F0036
:100B48000279837930B5056802F1804202F59E3258
:100B5800E9431BB3134B1C680C401C605C682140C4
:100B6800596011682943116002689C68D1430C40A0
:100B78009C60DC682140D9604179102906D19968C8
:100B880011439960D9680A43DA6030BD01F18043A6
:100B980003F59E3319680A431A60F6E713680B4099
:100BA8001360F2E7003C014000230C22036003714C
:100BB8004271837170470000024A1369184310613B
:100BC800704700BF003C0140034B5B69034214BF00
:100BD80001200020704700BF003C0140014B5861D4
:100BE800704700BF003C0140054B1A685B69034031
:100BF80004D0024214BF01200020704718467047F5
:100C0800003C0140014B5861704700BF003C014067
:100C18000A4B1A68002142F001021A6099601A68AA
:100C280022F0847222F480321A60054A5A601A68E7
:100C380022F480221A60D960704700BF0038024051
:100C480010300024024B00221A701870704700BF41
:100C580002380240034A136823F0F80343EAC0004D
:100C68001060704700380240014B1860704700BFA1
:100C780000004742064B002201281A701A7002D061
:100C8800042802D070471870704705221A70704700
:100C980070380240014B1860704700BF800E474211
:100CA80010B5029C40EA046008435B08013B40EA37
:100CB800821040EA0340014B586010BD00380240E2
:100CC800014B1860704700BF600047420907034B9B
:100CD80041EA8011C3F88410704700BF0038024011
:100CE800014B1860704700BF68004742014B18600D
:100CF800704700BF4C004742034A936823F0EC63F7
:100D0800194301439160704700380240034A9368D1
:100D180023F078431943014391607047003802403B
:100D2800034A936823F0030318439060704700BF99
:100D380000380240024B986800F00C00704700BF72
:100D480000380240034A936823F0F0031843906088
:100D5800704700BF00380240034A936823F4E05309
:100D680018439060704700BF00380240034A9368F8
:100D780023F4604343EAC0009060704700380240A3
:100D88001D4A936803F00C03042B10B51AD0082BE6
:100D98001AD01A4B184A036093681949C3F303130E
:100DA800CC5C0368E34043609468C4F382240C5D20
:100DB80023FA04F484609268C2F342328A5CD34016
:100DC800C36010BD0F4BE5E7546851685268630271
:100DD800C2F3881201F03F014CBF0A4B074BB3FB2B
:100DE800F1F35343044A5268C2F3014201325200FC
:100DF800B3FBF2F3CEE700BF003802400024F40052
:100E08006004002000127A0000F44073B3F5407FBC
:100E1800084A08D1916820F0704321F4F81123F4AE
:100E280040730B439360136FC0F30B0018431067B4
:100E3800704700BF00380240014B1860704700BF80
:100E48003C0E4742014B1860704700BF400E4742B6
:100E5800014B1860704700BF5C014742044B1A6B96
:100E680011B110431863704722EA0000FAE700BF87
:100E780000380240044B5A6B11B110435863704755
:100E880022EA0000FAE700BF00380240044B9A6BE0
:100E980011B110439863704722EA0000FAE700BFD7
:100EA80000380240044B1A6C11B1104318647047A3
:100EB80022EA0000FAE700BF00380240044B5A6CEF
:100EC80011B110435864704722EA0000FAE700BFE6
:100ED80000380240044B1A6911B110431861704779
:100EE80022EA0000FAE700BF00380240044B5A69C2
:100EF80011B110435861704722EA0000FAE700BFB9
:100F080000380240044B9A6911B110439861704748
:100F180022EA0000FAE700BF00380240044B1A6AD0
:100F280011B110431862704722EA0000FAE700BFC7
:100F380000380240044B5A6A11B110435862704796
:100F480022EA0000FAE700BF00380240044B1A6D9D
:100F580011B110431865704722EA0000FAE700BF94
:100F680000380240044B5A6D11B110435865704760
:100F780022EA0000FAE700BF00380240044B9A6DED
:100F880011B110439865704722EA0000FAE700BFE4
:100F980000380240044B1A6E11B1104318667047AE
:100FA80022EA0000FAE700BF00380240044B5A6EFC
:100FB80011B110435866704722EA0000FAE700BFF3
:100FC80000380240044B1A7811B11043187070476A
:100FD80022EA0000FAE700BF0D3802404209012A60
:100FE800074B07D11B6800F01F0023FA00F000F040
:100FF80001007047022A0CBF1B6F5B6FF3E700BF4D
:101008000038024007B5002301933120FFF7E6FFBF
:10101800019B01330193019BB3F5A06F01D0002818
:10102800F3D03120FFF7DAFF003018BF012003B0FA
:101038005DF804FB024A536F43F0807353677047AF
:1010480000380240034BDB68184214BF012000201F
:10105800704700BF00380240014B1870704700BF4E
:101068000E380240100000200100000001000600B8
:10107800010000000800000008000000080000004F
:101088000800000000100020004000800000000060
:10109800F8B500BFF8BC08BC9E467047F8B500BF5D
:0810A800F8BC08BC9E4670472D
:0810B00060F1FF7F0100000068
:0410B800F10100083A
:0410BC00C90100085E
:1010C00000000000000000001000002000000000F0
:1010D00000000000FC02002064030020CC0300207C
:1010E0000000000000000000000000000000000000
:1010F00000000000000000000000000000000000F0
:1011000000000000000000000000000000000000DF
:1011100000000000000000000000000000000000CF
:1011200000000000000000000000000000000000BF
:1011300000000000000000000000000000000000AF
:10114000000000000000000000000000000000009F
:10115000000000000000000000000000000000008F
:10116000000000000000000000000000000000007F
:10117000000000000000000001000000000000006E
:101180000E33CDAB34126DE6ECDE05000B00000033
:10119000000000000000000000000000000000004F
:1011A000000000000000000000000000000000003F
:1011B000000000000000000000000000000000002F
:1011C000000000000000000000000000000000001F
:101500000102030406070809007A030A00000240EA
:10151000000C0240000C0240000C0240000C024093
:101520000000000001020304010203040607080989
:0400000508000509E1
:00000001FF
